:100000000C942A000C9494060C94BF060C94E40300
:100010000C94DA030C948A030C9476030C948003FA
:100020000C946C030C94FB020C9447000C94C709CD
:100030000C9487090C94BD090C9447000C9447005C
:100040000C9447000C9447000C94C9060C941B02B6
:100050000C94470011241FBECFE5D4E0DEBFCDBF16
:1000600010E0A0E6B0E0E2E2F7E102C005900D92F8
:10007000A03EB107D9F711E0A0EEB0E001C01D929B
:10008000A639B107E1F70E94F2000C948F0B0C9493
:10009000D6078B9A9398089582B398E0892782BBFC
:1000A000089582B390E1892782BB83E00E943604E1
:1000B0008091E0009091E100A091E200B091E30016
:1000C0000196A11DB11D8093E0009093E100A093E3
:1000D000E200B093E3008091E0009091E100A091F4
:1000E000E200B091E3008A3F9105A105B10508F453
:1000F0004FC01092E0001092E1001092E2001092C6
:10010000E3008091600090916100A0916200B09145
:1001100063000196A11DB11D809360009093610062
:10012000A0936200B093630080915F018078836048
:1001300080935F018091600090916100A0916200C6
:10014000B09163008093600190936101A09362017C
:10015000B09363018091640180788660809364012C
:100160008091600090916100A0916200B091630065
:100170008093650190936601A0936701B093680135
:1001800081E590E062E00E94AF0583E00E942604D2
:10019000089587E080935F011092600110926101E1
:1001A00010926201109263018093640110926501C4
:1001B00010926601109267011092680181E590E04B
:1001C0006FE571E00E949B0508958C9A94980E94B7
:1001D000C90008958A9A9298089582B394E0892775
:1001E00082BB08950F931F93F8940E94040878949B
:1001F0000E94980180E064E041E550E020E005EED7
:1002000010E00E94280181E064E04CE450E021E02D
:1002100009E410E00E94280182E062E04AEA58E026
:1002200021E00EE818E00E9428010E941A010E94B5
:10023000C501FDCF82E060E043E00E94BE0280E0A5
:100240006AE70E94F80281E061E00E94DC02089502
:10025000FF920F931F93CF93DF93E0E0F0E0FE2E29
:10026000DF0133E0AA0FBB1F3A95E1F7AE1BBF0BCE
:10027000A759BE4F1596CD91DC911697209731F076
:10028000F3943196E430F10551F730C0EC931196B8
:100290002C93119791E0811190E0DF0123E0AA0FE8
:1002A000BB1F2A95E1F7AE1BBF0BA759BE4F129695
:1002B0009C931297882309F4862FDF0193E0AA0FFD
:1002C000BB1F9A95E1F7AE1BBF0BA759BE4F139604
:1002D0008C93139714966C93149716965C934E9385
:1002E00015970115110511F0F80109958F2DDF9172
:1002F000CF911F910F91FF9008958430C0F490E04A
:10030000FC0143E0EE0FFF1F4A95E1F7E81BF90BF4
:10031000E759FE4F85819681009749F084E08083FC
:1003200081E08183128213821482168215820895DD
:1003300080E00E947D0181E00E947D0182E00E94B8
:100340007D0183E00E947D010895AC010097D9F002
:1003500020E030E0F90163E0EE0FFF1F6A95E1F75E
:10036000E21BF30BE759FE4F8581968184179507B1
:1003700011F480810895822F8F5F2F5F3F4F2430CB
:10038000310541F7089584E00895FF920F931F937C
:10039000CF93DF93C0E0D0E0FC2E8E01E3E0000FAE
:1003A000111FEA95E1F70C1B1D0B07591E4FD801D1
:1003B00012968C911297882309F11596ED91FC9174
:1003C00016970995F8018281823038F080E040E08C
:1003D00050E0BA012C2F0E94D306FE0173E0EE0F0D
:1003E000FF1F7A95E1F7EC1BFD0BE759FE4F1282D8
:1003F0008481882319F48F2D0E947D010E94460478
:10040000282F873038F480E041E050E060E070E071
:100410000E94D3060E94C7052196C430D10509F079
:10042000BBCF813011F40E940A04DF91CF911F915C
:100430000F91FF9008951F920F920FB60F92112403
:10044000FF920F931F932F933F934F935F936F935D
:100450007F938F939F93AF93BF93CF93DF93EF934C
:10046000FF9300E010E0FF24F394F80183E0EE0F27
:10047000FF1F8A95E1F7E01BF10BE759FE4F8581DD
:1004800096810097A9F18381882319F08381815097
:100490008383E801B3E0CC0FDD1FBA95E1F7C01B01
:1004A000D10BC759DE4F8B81882311F589818130AB
:1004B00039F48A818A3068F48A818F5F8A8309C01F
:1004C000ED81FE8109958C81882319F4F9821E82C1
:1004D0001D82F801A3E0EE0FFF1FAA95E1F7E01BD4
:1004E000F10BE759FE4F8481882311F084818383C7
:1004F0000F5F1F4F0430110509F0B7CFFF91EF9147
:10050000DF91CF91BF91AF919F918F917F916F912B
:100510005F914F913F912F911F910F91FF900F90FD
:100520000FBE0F901F901895DF93CF9300D000D08F
:10053000CDB7DEB71A82198215C01C821B8206C095
:100540002B813C812F5F3F4F3C832B832B813C8150
:1005500041E02E3A3407A0F329813A812F5F3F4FC3
:100560003A83298329813A812817390730F30F907C
:100570000F900F900F90CF91DF9108954770282F23
:1005800021702295220F220F207C242B70E06370B3
:10059000707054E0660F771F5A95E1F7262B90E0B4
:1005A000827090709695879533E0880F991F3A95E1
:1005B000E1F7282B23BF0895882361F4662319F4FB
:1005C00089B78E7F02C089B7816089BF88B7816093
:1005D00088BF0895813059F4662319F489B78D7F57
:1005E00002C089B7826089BF88B7826088BF0895DA
:1005F00082BF6CBF08951F920F920FB60F92112405
:100600000F900FBE0F901F9018956295660F660FA2
:10061000607C982F9370692B50E04370507074E0A9
:10062000440F551F7A95E1F7642B6FBD277090E05A
:100630008C709070880F991F282B2EBD089570E044
:1006400061707070E6E0660F771FEA95E1F78795B5
:1006500088278795862B8EBD0895882359F46623B5
:1006600019F489B78B7F02C089B7846089BF88B7C6
:10067000846019C0833059F4662319F489B78F7EDA
:1006800002C089B7806189BF88B780610CC084309F
:1006900061F4662319F489B7877F02C089B788603F
:1006A00089BF88B7886088BF0895823059F466236F
:1006B00019F489B78F7D02C089B7806289BF88B776
:1006C000806288BF08959DBD8CBD7BBD6ABD59BD4C
:1006D00048BD37BD26BD08951F920F920FB60F92E9
:1006E00011240F900FBE0F901F9018951F920F921C
:1006F0000FB60F9211240F900FBE0F901F901895F8
:100700001F920F920FB60F9211240F900FBE0F90F1
:100710001F9018951F920F920FB60F9211240F90F1
:100720000FBE0F901F9018954770282F21702295AB
:10073000220F220F207C242B70E063707070B4E0D5
:10074000660F771FBA95E1F7262B90E082709070C4
:1007500096958795F3E0880F991FFA95E1F7282B76
:1007600025BD0895882361F4662319F489B78F7B2A
:1007700002C089B7806489BF88B7806488BF089544
:10078000813059F4662319F489B78F7702C089B78D
:10079000806889BF88B7806888BF089584BD63BDBD
:1007A0000895882319F485B5806802C085B58F77D0
:1007B00085BD08951F920F920FB60F9211240F90CE
:1007C0000FBE0F901F9018951F920F920FB60F92A9
:1007D00011240F900FBE0F901F90189582EA81BFD1
:1007E0000895982F92509F3038F4482F50E060E0E1
:1007F00070E085E00E94B20408959C0120563040CC
:1008000044E02030340710F49C0102C020E630E0C0
:10081000C90108950895A89591B5906191BD87701B
:10082000886081BD0895F894A89581B5886181BDDF
:1008300011BC78940895809196018F5F8093960102
:10084000809196010895089508950895873068F479
:1008500090E0FC01EE0FFF1FEE0FFF1FE80FF91FE6
:10086000EC51FF4F8081806880830895873068F461
:1008700090E0FC01EE0FFF1FEE0FFF1FE80FF91FC6
:10088000EC51FF4F80818F778083089520E030E026
:10089000822FF901EE0FFF1FEE0FFF1FE20FF31F74
:1008A000EC51FF4F908197FD06C08F5F2F5F3F4F48
:1008B0002730310569F708958091E4008F778093A0
:1008C000E4008091E9008F778093E9008091EE0049
:1008D0008F778093EE008091F3008F778093F30001
:1008E0008091F8008F778093F8008091FD008F77DA
:1008F0008093FD00809102018F778093020108951B
:10090000A5EEB0E080E090E0FC01EE0FFF1FEE0FDF
:10091000FF1FE80FF91FEC51FF4F27E020831D92C6
:100920001D921D921C921397019615968730910582
:1009300059F710928501109287011092860110924A
:10094000880110928A011092890110928B011092F5
:100950008D0110928C0110928E01109290011092D4
:100960008F0108958730B0F4282F30E0F901EE0FA1
:10097000FF1FEE0FFF1FE20FF31FEC51FF4F90819F
:1009800097FD0AC041835283638374838F7780838A
:1009900081E0089580E0089580E00895CF93DF938B
:1009A000DC018C91807887608C9311961D921D924A
:1009B0001D921C921497C5EED0E060E070E0FB0140
:1009C000EE0FFF1FEE0FFF1FE60FF71FEC51FF4F5B
:1009D000908197FD2CC0906890839F779730C1F0ED
:1009E0008C918078892B8C93288139814A815B8115
:1009F00011962D933D934D935C931497808180784D
:100A000087608083188219821A821B8281E001C06C
:100A100080E0FB01EE0FFF1FEE0FFF1FE60FF71F39
:100A2000EC51FF4F90819F779083813039F06F5F59
:100A30007F4F25966730710511F680E0DF91CF91E9
:100A400008950F931F938730A0F5A82FB0E0FD0104
:100A5000EE0FFF1FEE0FFF1FEA0FFB1FEC51FF4FC2
:100A6000808187FD26C0806880838F7790E08A1719
:100A70009B0789F4018112812381348104171507B2
:100A80002607370741F487E8808311821282138298
:100A9000148281E001C080E0FD01EE0FFF1FEE0F28
:100AA000FF1FEA0FFB1FEC51FF4F90819F77908350
:100AB00001C080E01F910F910895CF93DF9387309D
:100AC000B0F5A82FB0E0FD01EE0FFF1FEE0FFF1FE6
:100AD000EA0FFB1FEC51FF4F808187FD28C0806823
:100AE00080838F7790E08A179B0799F42181328168
:100AF00043815481EB01288339834A835B8380815E
:100B0000807887608083118212821382148281E050
:100B100001C080E0FD01EE0FFF1FEE0FFF1FEA0F87
:100B2000FB1FEC51FF4F90819F77908301C080E0C5
:100B3000DF91CF910895CF93DF93EB010E94A50140
:100B4000843050F490E0FC01EE0FFF1FE80FF91F16
:100B5000EB57FE4FD283C183DF91CF910895DF938E
:100B6000CF930F92CDB7DEB769830E94A50169814B
:100B7000843048F490E0FC01EE0FFF1FE80FF91FEE
:100B8000EB57FE4F60830F90CF91DF910895CF9286
:100B9000DF92EF92FF920F931F93DF93CF9300D0DA
:100BA00000D000D0CDB7DEB705E811E091E0D80164
:100BB000DC90DD2009F446C0EE24FF24CC242AC0BA
:100BC000D8011196ED91FC911297EE0DFF1D8081D9
:100BD0008F7729812078282B29832F772730A9F038
:100BE00041815281638174819E830E94B2049E81FF
:100BF000813059F4D8011196ED91FC911297EE0DC8
:100C0000FF1D8081807887608083C394E5E0F0E0F9
:100C1000EE0EFF1ECD14A0F220E030E080E00EC00A
:100C2000D8011196ED91FC911297E20FF31F4081CC
:100C30004F772B5F3F4F473021F48F5F8D1580F347
:100C400018C090E00D5F1F4FB1E001391B0709F09C
:100C5000AECF892F26960FB6F894DEBF0FBECDBF5C
:100C6000CF91DF911F910F91FF90EF90DF90CF9088
:100C70000895F8011082E6CF08950895813069F053
:100C8000813018F0823029F516C085B78C7F85BF7A
:100C900085B76370682B65BF089585B7837F85BF6F
:100CA00085B770E063707070660F771F660F771FEF
:100CB000862B85BF08958BB78F7D8BBF623021F463
:100CC00084B78F7B84BF0895633019F484B7806440
:100CD00084BF0895813081F0813018F0823019F599
:100CE00017C0662319F48BB78F7B02C08BB7806463
:100CF0008BBF8AB780640AC0662319F48BB78F77DD
:100D000002C08BB780688BBF8AB780688ABF08959E
:100D1000662319F48BB78F7D02C08BB780628BBFBF
:100D20008AB780628ABF08951F920F920FB60F9202
:100D300011242F933F934F935F936F937F938F93E0
:100D40009F93AF93BF93EF93FF93789482B38058B0
:100D500082BB84EF91E00E949402F894FF91EF919E
:100D6000BF91AF919F918F917F916F915F914F91C3
:100D70003F912F910F900FBE0F901F9018951F92CB
:100D80000F920FB60F9211240F900FBE0F901F906D
:100D900018951F920F920FB60F9211240F900FBE4D
:100DA0000F901F901895DF92EF92FF920F931F9371
:100DB000DF93CF9300D000D00F92CDB7DEB7D82EFF
:100DC0007A018B012D830E9436048D2DBE016F5F49
:100DD0007F4F0E945D052D81813009F048C082E07F
:100DE000E816F1040105110579F183E0E816F10434
:100DF0000105110560F4E114F10401051105F9F094
:100E000081E0E816F1040105110551F513C084E0F5
:100E1000E816F10401051105E9F084E0E816F10493
:100E200001051105A0F085E0E816F10401051105A2
:100E3000B9F413C08B8181608B83298311C08B81AE
:100E400082608B832A830CC08C81806108C08C8176
:100E5000806205C08C81806402C08C8180688C8334
:100E600049815A816B817C818D2D0E94B2040F9043
:100E70000F900F900F900F90CF91DF911F910F91D6
:100E8000FF90EF90DF900895089584E497E061E982
:100E900071E00E949B05089584E497E061E00E9460
:100EA000AF050895613079F0613030F0623031F093
:100EB000633009F05FC004C060E006C060E001C0BC
:100EC00061E071E002C061E070E0233099F024300D
:100ED00028F42130D1F0223058F408C0253079F0C0
:100EE000253058F0263009F045C00CC021E00EC076
:100EF00021E001C020E031E00AC021E001C020E093
:100F000032E005C020E033E002C020E030E0813074
:100F100049F4C49ABC9AC598BD9AC698BE98C79819
:100F2000BF9A08C0C49ABC98C598BD98C698BE9A86
:100F3000C798BF9890E08170907054E0880F991F17
:100F40005A95E1F7806450E04170507095E0440F8D
:100F5000551F9A95E1F7842B770F770F770F782B32
:100F6000862F880F880F872B832B8DB970988EB1B1
:100F7000822B8EB908958EB19FB1890F0895882371
:100F800011F46F9801C06F9A0E94BB0708951F93D8
:100F9000182F0E94BB071FB9779BFECF1F910895A2
:100FA0000E94C7078FB10895089508951F920F9268
:100FB0000FB60F9211248F938BB380588BBB8F91F8
:100FC0000F900FBE0F901F90189504B600FE03C03F
:100FD00084B78E7F84BF04B601FE03C084B78D7FC3
:100FE00084BF04B602FE03C084B78B7F84BF04B6FF
:100FF00003FE03C084B7877F84BF04B604FE03C02A
:1010000084B78F7E84BF08950E94EE038FEF8ABB62
:101010001BBA87BB88BB84BB15BA81BB12BAD79AEF
:10102000DF980E9480048AE00E94F10380E040E0A3
:1010300050E0BA010E94B20480E045E050E060E078
:1010400070E020E00E94D30684E690E00E949402C3
:10105000089592E09BB990E083709070A4E0880FAF
:10106000991FAA95E1F78868962F9370990F982B8E
:1010700090BD52988AB16470682B6AB9CA01B901EF
:10108000F3E0660F771F881F991FFA95D1F760501C
:101090007C4D8B409F4FE4E0220F331F441F551FB0
:1010A000EA95D1F70E946D0B21503040832F8F704D
:1010B00080BD29B90895882331F4662311F4579827
:1010C0000895579A0895813031F4662311F45698A3
:1010D0000895569A0895823029F4662311F455989C
:1010E0000895559A0895882331F4662311F454988D
:1010F0000895549A0895813029F4662311F4539881
:101100000895539A08959BB1292F237E882319F4BB
:10111000927E9BB9089521602BB9089583E063E026
:1011200020E032EC41E050E00E942908919A899A2F
:101130000895009771F01092850090938700809336
:10114000860081E061E00E94730882E061E00E9415
:101150005B080895EF92FF920F931F938091070110
:101160008130A9F1813020F0823009F0CBC0A3C0DA
:1011700080919600992787FD90952DB73EB72A500C
:1011800030400FB6F8943EBF0FBE2DBFEDB7FEB78F
:10119000319624E630E0ADB7BEB712963C932E935D
:1011A0001197938382839583848397838683918722
:1011B00080870E94AD0A84E180930701EDB7FEB7F6
:1011C0003A960FB6F894FEBF0FBEEDBF9BC02DB789
:1011D0003EB72A5030400FB6F8943EBF0FBE2DBF29
:1011E000EDB7FEB7319685E790E0ADB7BEB7129682
:1011F0009C938E9311978091DC009091DD00A091DB
:10120000DE00B091DF0082839383A483B583809155
:1012100094008683178280919500808711860E94B2
:10122000AD0AE090DC00F090DD000091DE0010914E
:10123000DF000894E108F10801091109E092DC00DF
:10124000F092DD000093DE001093DF00C801B701CB
:101250002AE030E040E050E00E946D0BEDB7FEB7B1
:101260003A960FB6F894FEBF0FBEEDBF611571053B
:101270008105910511F42DE001C020E22093940036
:10128000611571058105910511F48AE001C080E2C4
:101290008093950091E0FBE9EF16FFEFFF06FFEF6B
:1012A0000F07FFEF1F0709F090E080910701890FFA
:1012B0008093070127C000D000D000D08CE790E0D9
:1012C000ADB7BEB712969C938E9311978091DC00B8
:1012D0009091DD00A091DE00B091DF00EDB7FEB788
:1012E00083839483A583B6830E94AD0A84E18093AF
:1012F00007012DB73EB72A5F3F4F0FB6F8943EBFA8
:101300000FBE2DBF1F910F91FF90EF9008951F9278
:101310000F920FB60F9211242F933F934F935F9329
:101320006F937F938F939F93AF93BF93EF93FF93AD
:10133000E0918600F09187008CE290E00995882387
:1013400059F481E08093850082E060E00E945B08B0
:1013500081E060E00E947308FF91EF91BF91AF912F
:101360009F918F917F916F915F914F913F912F91BD
:101370000F900FBE0F901F9018951F920F920FB6EF
:101380000F9211240F900FBE0F901F9018951F926F
:101390000F920FB60F9211240F900FBE0F901F9057
:1013A000189520910A012223C1F0E0910901F0E093
:1013B000EB5EFE4F2081FC012083809109018F3379
:1013C00011F08F5F01C080E08093090180910A01D4
:1013D000815080930A0181E0089580E008958F3361
:1013E00011F08F5F089580E0089520910A01213463
:1013F00098F490910801E92FF0E0EB5EFE4F8083B6
:101400009F3311F09F5F01C090E0909308012F5F20
:1014100020930A0181E0089580E008958F929F92C1
:10142000AF92BF92CF92DF92EF92FF921F936B0128
:101430007C0110E08AE0882E912CA12CB12CC701F0
:10144000B601A50194010E946D0BE12FF0E0E55F6C
:10145000FE4F6083A7019601261B370B480B590BE3
:10146000CA01B901A50194010E946D0B69017A01BD
:101470001F5F211531054105510509F71150E12F75
:10148000F0E0E55FFE4F8081805D0E94F509112349
:10149000A9F71F91FF90EF90DF90CF90BF90AF9092
:1014A0009F908F900895EF92FF920F931F937B016F
:1014B0008C0197FF0BC010950095F094E094E11C0F
:1014C000F11C011D111D8DE20E94F509C801B70133
:1014D0000E940E0A1F910F91FF90EF9008950E94B5
:1014E000F5090895EF92FF92CF93DF93E82EE7017D
:1014F0007E01F92EE70102C00E94F5098991882337
:10150000D9F7DF91CF91FF90EF9008951F9310E0EE
:10151000262F2F702A3010F4205D01C0295AE12FA8
:10152000F0E0E55FFE4F208324E096958795779560
:1015300067952A95D1F71F5F6115710581059105A2
:1015400039F71150E12FF0E0E55FFE4F80810E94F6
:10155000F5091123B1F71F910895EF92FF920F93B0
:101560001F93DF93CF9300D0CDB7DEB79E01235FEB
:101570003F4F9B858C85092F182F90E09AC08532AC
:1015800009F08EC00F5F1F4FF8018081843689F10A
:10159000853648F4883509F46BC0833691F085357B
:1015A00009F073C04BC08337B1F0843720F48C3618
:1015B00009F06BC02BC08537B1F1883709F065C0E1
:1015C0004AC0B2E0EB2EF12CE20EF31EF90180814D
:1015D0000E946F0A0CC0A2E0EA2EF12CE20EF31E6C
:1015E000F901808191810E94FD030E94720A970196
:1015F0005DC0F2E0EF2EF12CE20EF31EF9016081E6
:101600007181882777FD8095982F0AC0E4E0EE2E3F
:10161000F12CE20EF31EF9016081718182819381C8
:101620000E94530AE4CF72E0E72EF12CE20EF31E83
:10163000F9016081718180E090E00AC064E0E62EEB
:10164000F12CE20EF31EF901608171818281938198
:101650000E940E0ACCCF52E0E52EF12CE20EF31ED2
:10166000F90160817181882777FD8095982F0AC0E4
:1016700044E0E42EF12CE20EF31EF9016081718149
:10168000828193810E94860AB2CF2E5F3F4FF8017C
:10169000808129833A830E946F0A29813A8106C09A
:1016A00029833A830E946F0A3A8129810F5F1F4F75
:1016B00091E0F8018081882309F061CF913021F415
:1016C00081ED99E00E9499080F900F90CF91DF91E2
:1016D0001F910F91FF90EF900895A1E21A2EAA1B7F
:1016E000BB1BFD010DC0AA1FBB1FEE1FFF1FA217D2
:1016F000B307E407F50720F0A21BB30BE40BF50BCF
:10170000661F771F881F991F1A9469F76095709557
:10171000809590959B01AC01BD01CF010895F8948F
:02172000FFCFF9
:10172200809698005B25635D2C282564292C7C25F6
:101732006C7C0A0D002555256325630025750D0A6D
:1017420000000000000100007331323334353600EE
:10175200333327412020C061626331323334350094
:10176200406438FF2A000080018064003800FF00D6
:10177200E803FF7F00000180FFFF102700000080C8
:10178200FFFFFFFFFEFFFFFFF0D8FFFF000000009A
:1017920010270000FFFFFF7F9BFFFF7F6400000018
:00000001FF
