:100000000C942A000C9448060C9473060C949803E4
:100010000C948E030C943E030C942A030C9434032A
:100020000C9420030C94AF020C9447000C94940998
:100030000C9454090C948A090C9447000C944700C2
:100040000C9447000C9447000C947D060C94F70127
:100050000C94470011241FBECFE5D4E0DEBFCDBF16
:1000600010E0A0E6B0E0ECEBF6E102C005900D92E6
:10007000AC3EB107D9F711E0ACEEB0E001C01D9283
:10008000A13AB107E1F70E94F2000C945C0B0C94CA
:100090008A078B9A9398089582B398E0892782BB48
:1000A000089582B390E1892782BB83E00E94EA032E
:1000B0008091EC009091ED00A091EE00B091EF00E6
:1000C0000196A11DB11D8093EC009093ED00A093CB
:1000D000EE00B093EF008091EC009091ED00A091C4
:1000E000EE00B091EF008A3F9105A105B10508F43B
:1000F0004FC01092EC001092ED001092EE001092A2
:10010000EF008091600090916100A0916200B09139
:1001100063000196A11DB11D809360009093610062
:10012000A0936200B093630080916A01807883603D
:1001300080936A018091600090916100A0916200BB
:10014000B091630080936B0190936C01A0936D015B
:10015000B0936E0180916F018078866080936F010B
:100160008091600090916100A0916200B091630065
:100170008093700190937101A0937201B093730109
:1001800081E590E062E00E94630583E00E94DA036B
:10019000089587E080936A0110926B0110926C01C0
:1001A00010926D0110926E0180936F011092700198
:1001B00010927101109272011092730181E590E02A
:1001C0006AE671E00E944F0508958C9A94980E9407
:1001D000C90008958A9A9298089582B394E0892775
:1001E00082BB08950F931F93F8940E94B8077894E8
:1001F0000E94900180E064E041E550E020E005EEDF
:1002000010E00E94280181E064E04CE450E021E02D
:1002100009E410E00E94280182E062E043E558E032
:1002200021E007E318E00E9428010E941A010E94C1
:10023000C001FDCF82E060E043E00E94720280E0F6
:100240006AE70E94AC0281E061E00E94900208959A
:10025000FF920F931F93CF93DF93A9E7B1E0E0E004
:10026000F0E0FE2ECD91DC911197209739F0F394B8
:1002700031961796E430F105A1F730C0DF0133E085
:10028000AA0FBB1F3A95E1F7AE1BBF0BAC58BE4F90
:10029000EC9311962C93119791E0811190E01296B6
:1002A0009C931297882309F4862FDF0193E0AA0F0D
:1002B000BB1F9A95E1F7AE1BBF0BAC58BE4F139610
:1002C0008C93139714966C93149716965C934E9395
:1002D00015970115110511F0F80109958F2DDF9182
:1002E000CF911F910F91FF9008958430C0F490E05A
:1002F000FC0143E0EE0FFF1F4A95E1F7E81BF90B05
:10030000EC58FE4F85819681009749F084E0808308
:1003100081E08183128213821482168215820895ED
:1003200080E00E94750181E00E94750182E00E94D8
:10033000750183E00E9475010895AC010097F1F00A
:10034000E9E7F1E020E030E08081918184179507B2
:1003500061F4F90153E0EE0FFF1F5A95E1F7E21B3C
:10036000F30BEC58FE4F80810895822F8F5F2F5F33
:100370003F4F37962430310539F7089584E00895CA
:100380001F93CF93DF93C6E7D1E010E088818823E5
:10039000A1F0EB81FC8109958881823038F080E002
:1003A00040E050E0BA01212F0E94870618828A811E
:1003B000882319F4812F0E9475010E94FA03282FC7
:1003C000873038F480E041E050E060E070E00E9467
:1003D00087060E947B051F5F27961430B9F681308F
:1003E00011F40E94BE03DF91CF911F9108951F92D7
:1003F0000F920FB60F9211241F932F933F934F9399
:100400005F936F937F938F939F93AF93BF93CF939C
:10041000DF93EF93FF93C5E7D1E011E08C819D81DD
:100420000097E9F08A81882311F081508A838A81BC
:100430008823A9F48881813031F489818A3060F47D
:100440008F5F898309C0EC81FD8109958B818823A9
:1004500019F418831D821C828B8181118A8327964F
:1004600081E0C139D807D1F6FF91EF91DF91CF91AB
:10047000BF91AF919F918F917F916F915F914F91BC
:100480003F912F911F910F900FBE0F901F901895C5
:10049000DF93CF9300D000D0CDB7DEB71A82198298
:1004A00015C01C821B8206C02B813C812F5F3F4FF1
:1004B0003C832B832B813C8141E02E3A3407A0F30F
:1004C00029813A812F5F3F4F3A83298329813A81DD
:1004D0002817390730F30F900F900F900F90CF919E
:1004E000DF9108954770282F21702295220F220F47
:1004F000207C242B70E06370707054E0660F771FCF
:100500005A95E1F7262B90E082709070969587952A
:1005100033E0880F991F3A95E1F7282B23BF089500
:10052000882361F4662319F489B78E7F02C089B7E6
:10053000816089BF88B7816088BF0895813059F490
:10054000662319F489B78D7F02C089B7826089BF9D
:1005500088B7826088BF089582BF6CBF08951F92DC
:100560000F920FB60F9211240F900FBE0F901F9095
:1005700018956295660F660F607C982F9370692BB3
:1005800050E04370507074E0440F551F7A95E1F7C6
:10059000642B6FBD277090E08C709070880F991F4E
:1005A000282B2EBD089570E061707070E6E0660F34
:1005B000771FEA95E1F7879588278795862B8EBD6B
:1005C0000895882359F4662319F489B78B7F02C0F4
:1005D00089B7846089BF88B7846019C0833059F4B3
:1005E000662319F489B78F7E02C089B7806189BFFD
:1005F00088B780610CC0843061F4662319F489B730
:10060000877F02C089B7886089BF88B7886088BF44
:100610000895823059F4662319F489B78F7D02C09A
:1006200089B7806289BF88B7806288BF08959DBD01
:100630008CBD7BBD6ABD59BD48BD37BD26BD089583
:100640001F920F920FB60F9211240F900FBE0F90B2
:100650001F9018951F920F920FB60F9211240F90B2
:100660000FBE0F901F9018951F920F920FB60F920A
:1006700011240F900FBE0F901F9018951F920F928C
:100680000FB60F9211240F900FBE0F901F90189568
:100690004770282F21702295220F220F207C242BB7
:1006A00070E063707070B4E0660F771FBA95E1F781
:1006B000262B90E08270907096958795F3E0880FD6
:1006C000991FFA95E1F7282B25BD0895882361F439
:1006D000662319F489B78F7B02C089B7806489BF0C
:1006E00088B7806488BF0895813059F4662319F46F
:1006F00089B78F7702C089B7806889BF88B780685B
:1007000088BF089584BD63BD0895882319F485B515
:10071000806802C085B58F7785BD08951F920F92BE
:100720000FB60F9211240F900FBE0F901F901895C7
:100730001F920F920FB60F9211240F900FBE0F90C1
:100740001F90189582EA81BF0895982F92509F308C
:1007500038F4482F50E060E070E085E00E946604C5
:1007600008959C012056304044E02030340710F4B6
:100770009C0102C020E630E0C90108950895A895C3
:1007800091B5906191BD8770886081BD0895F8949E
:10079000A89581B5886181BD11BC78940895809138
:1007A000A1018F5F8093A1018091A1010895089517
:1007B00008950895873068F490E0FC01EE0FFF1F64
:1007C000EE0FFF1FE80FF91FE051FF4F8081806897
:1007D00080830895873068F490E0FC01EE0FFF1FDE
:1007E000EE0FFF1FE80FF91FE051FF4F80818F7759
:1007F0008083089520E030E0822FF901EE0FFF1F83
:10080000EE0FFF1FE20FF31FE051FF4F908197FDA6
:1008100006C08F5F2F5F3F4F2730310569F708957E
:100820008091F0008F778093F0008091F5008F77B2
:100830008093F5008091FA008F778093FA00809181
:10084000FF008F778093FF00809104018F77809362
:100850000401809109018F778093090180910E0135
:100860008F7780930E010895A1EFB0E080E090E0D3
:10087000FC01EE0FFF1FEE0FFF1FE80FF91FE05105
:10088000FF4F27E020831D921D921D921C9213970B
:10089000019615968730910559F7109290011092A4
:1008A0009201109291011092930110929501109271
:1008B0009401109296011092980110929701109253
:1008C000990110929B0110929A0108958730B0F41B
:1008D000282F30E0F901EE0FFF1FEE0FFF1FE20F90
:1008E000F31FE051FF4F908197FD0AC0418352836F
:1008F000638374838F77808381E0089580E0089517
:1009000080E00895CF93DF93DC018C91807887603D
:100910008C9311961D921D921D921C921497C1EFFB
:10092000D0E060E070E0FB01EE0FFF1FEE0FFF1F55
:10093000E60FF71FE051FF4F908197FD2CC09068A4
:1009400090839F779730C1F08C918078892B8C931E
:10095000288139814A815B8111962D933D934D9376
:100960005C931497808180788760808318821982D5
:100970001A821B8281E001C080E0FB01EE0FFF1FA5
:10098000EE0FFF1FE60FF71FE051FF4F90819F779B
:100990009083813039F06F5F7F4F25966730710506
:1009A00011F680E0DF91CF9108950F931F93873068
:1009B000A0F5A82FB0E0FD01EE0FFF1FEE0FFF1F07
:1009C000EA0FFB1FE051FF4F808187FD26C0806842
:1009D00080838F7790E08A179B0789F401811281C9
:1009E00023813481041715072607370741F487E868
:1009F0008083118212821382148281E001C080E020
:100A0000FD01EE0FFF1FEE0FFF1FEA0FFB1FE0516E
:100A1000FF4F90819F77908301C080E01F910F91DD
:100A20000895CF93DF938730B0F5A82FB0E0FD0194
:100A3000EE0FFF1FEE0FFF1FEA0FFB1FE051FF4FEE
:100A4000808187FD28C0806880838F7790E08A1737
:100A50009B0799F42181328143815481EB012883E2
:100A600039834A835B8380818078876080831182A9
:100A700012821382148281E001C080E0FD01EE0F3A
:100A8000FF1FEE0FFF1FEA0FFB1FE051FF4F90818A
:100A90009F77908301C080E0DF91CF910895CF933D
:100AA000DF93EB010E949D01843050F490E0FC0143
:100AB000EE0FFF1FE80FF91FE057FE4FD283C183EF
:100AC000DF91CF910895DF93CF930F92CDB7DEB72B
:100AD00069830E949D016981843048F490E0FC01A3
:100AE000EE0FFF1FE80FF91FE057FE4F60830F90D6
:100AF000CF91DF910895CF92DF92EF92FF920F9303
:100B00001F93DF93CF9300D000D000D0CDB7DEB7D6
:100B100000E911E091E0D801DC90DD2009F446C045
:100B2000EE24FF24CC242AC0D8011196ED91FC912B
:100B30001297EE0DFF1D80818F7729812078282B59
:100B400029832F772730A9F04181528163817481F5
:100B50009E830E9466049E81813059F4D8011196CB
:100B6000ED91FC911297EE0DFF1D808180788760DA
:100B70008083C394E5E0F0E0EE0EFF1ECD14A0F2FA
:100B800020E030E080E00EC0D8011196ED91FC919C
:100B90001297E20FF31F40814F772B5F3F4F473093
:100BA00021F48F5F8D1580F318C090E00D5F1F4F0B
:100BB000B1E00C391B0709F0AECF892F26960FB68E
:100BC000F894DEBF0FBECDBFCF91DF911F910F9183
:100BD000FF90EF90DF90CF900895F8011082E6CF5C
:100BE00008950895813069F0813018F0823029F538
:100BF00016C085B78C7F85BF85B76370682B65BFCE
:100C0000089585B7837F85BF85B770E06370707086
:100C1000660F771F660F771F862B85BF08958BB7EA
:100C20008F7D8BBF623021F484B78F7B84BF0895A2
:100C3000633019F484B7806484BF0895813081F0F3
:100C4000813018F0823019F517C0662319F48BB77C
:100C50008F7B02C08BB780648BBF8AB780640AC069
:100C6000662319F48BB78F7702C08BB780688BBF70
:100C70008AB780688ABF0895662319F48BB78F7D81
:100C800002C08BB780628BBF8AB780628ABF08952B
:100C90001F920F920FB60F9211242F933F934F93F1
:100CA0005F936F937F938F939F93AF93BF93EF93D4
:100CB000FF93789482B3805882BB84EF91E00E94C6
:100CC0004802F894FF91EF91BF91AF919F918F915E
:100CD0007F916F915F914F913F912F910F900FBE38
:100CE0000F901F9018951F920F920FB60F9211241C
:100CF0000F900FBE0F901F9018951F920F920FB676
:100D00000F9211240F900FBE0F901F901895DF9235
:100D1000EF92FF920F931F93DF93CF9300D000D0F9
:100D20000F92CDB7DEB7D82E7A018B012D830E94AA
:100D3000EA038D2DBE016F5F7F4F0E9411052D814B
:100D4000813009F048C082E0E816F1040105110580
:100D500079F183E0E816F1040105110560F4E1146E
:100D6000F10401051105F9F081E0E816F10401052F
:100D7000110551F513C084E0E816F10401051105D1
:100D8000E9F084E0E816F10401051105A0F085E022
:100D9000E816F10401051105B9F413C08B818160D7
:100DA0008B83298311C08B8182608B832A830CC043
:100DB0008C81806108C08C81806205C08C818064D8
:100DC00002C08C8180688C8349815A816B817C81CF
:100DD0008D2D0E9466040F900F900F900F900F9032
:100DE000CF91DF911F910F91FF90EF90DF900895C9
:100DF000089588EF96E06CE971E00E944F05089530
:100E000088EF96E061E00E9463050895613079F013
:100E1000613030F0623031F0633009F05FC004C0FF
:100E200060E006C060E001C061E071E002C061E026
:100E300070E0233099F0243028F42130D1F02230B2
:100E400058F408C0253079F0253058F0263009F0E4
:100E500045C00CC021E00EC021E001C020E031E01F
:100E60000AC021E001C020E032E005C020E033E00C
:100E700002C020E030E0813049F4C49ABC9AC598A1
:100E8000BD9AC698BE98C798BF9A08C0C49ABC9825
:100E9000C598BD98C698BE9AC798BF9890E08170D3
:100EA000907054E0880F991F5A95E1F7806450E0E4
:100EB0004170507095E0440F551F9A95E1F7842BCF
:100EC000770F770F770F782B862F880F880F872B58
:100ED000832B8DB970988EB1822B8EB908958EB107
:100EE0009FB1890F0895882311F46F9801C06F9AFC
:100EF0000E946F0708951F93182F0E946F071FB954
:100F0000779BFECF1F9108950E947B078FB10895B4
:100F1000089508951F920F920FB60F9211248F9388
:100F20008BB380588BBB8F910F900FBE0F901F908B
:100F3000189504B600FE03C084B78E7F84BF04B644
:100F400001FE03C084B78D7F84BF04B602FE03C0D8
:100F500084B78B7F84BF04B603FE03C084B7877F4A
:100F600084BF04B604FE03C084B78F7E84BF089597
:100F70000E94A2038FEF8ABB1BBA87BB88BB84BBCE
:100F800015BA81BB12BAD79ADF980E9434048AE05E
:100F90000E94A50380E040E050E0BA010E94660490
:100FA00080E045E050E060E070E020E00E948706CD
:100FB00084E690E00E944802089592E09BB990E098
:100FC00083709070A4E0880F991FAA95E1F7886854
:100FD000962F9370990F982B90BD52988AB1647098
:100FE000682B6AB9CA01B901F3E0660F771F881F41
:100FF000991FFA95D1F760507C4D8B409F4FE4E0EC
:10100000220F331F441F551FEA95D1F70E943A0B58
:1010100021503040832F8F7080BD29B908958823D7
:1010200031F4662311F457980895579A0895813042
:1010300031F4662311F456980895569A0895823033
:1010400029F4662311F455980895559A0895882334
:1010500031F4662311F454980895549A0895813018
:1010600029F4662311F453980895539A089583E060
:1010700063E020E032EC41E050E00E94DD07919A0D
:10108000899A0895009771F01092910090939300BF
:101090008093920081E061E00E94270882E061E095
:1010A0000E940F080895EF92FF920F931F93809173
:1010B000EB00813009F458C0813020F0823009F013
:1010C000EEC0C6C02DB73EB7245130400FB6F894DD
:1010D0003EBF0FBE2DBFEDB7FEB7319684E690E060
:1010E000ADB7BEB712969C938E93119782EA90E0AB
:1010F000938382838091A200848315828091AB00C8
:10110000868317828091B1009091B2009187808789
:101110008091C1009091C200938782878091C7001F
:101120009091C800A091C900B091CA0084879587AA
:10113000A687B7878091E7009091E800A091E90029
:10114000B091EA00808B918BA28BB38B0E947A0ABC
:1011500084E18093EB00EDB7FEB774960FB6F89478
:10116000FEBF0FBEEDBF9BC02DB73EB72A5030402B
:101170000FB6F8943EBF0FBE2DBFEDB7FEB7319648
:1011800081E890E0ADB7BEB712969C938E9311970D
:101190008091E7009091E800A091E900B091EA0009
:1011A00082839383A483B5838091A0008683178272
:1011B0008091A100808711860E947A0AE090E70062
:1011C000F090E8000091E9001091EA000894E1082D
:1011D000F10801091109E092E700F092E80000939C
:1011E000E9001093EA00C801B7012AE030E040E0CE
:1011F00050E00E943A0BEDB7FEB73A960FB6F8945E
:10120000FEBF0FBEEDBF611571058105910511F49B
:101210002DE001C020E22093A00061157105810539
:10122000910511F48AE001C080E28093A10091E071
:10123000FBE9EF16FFEFFF06FFEF0F07FFEF1F07BA
:1012400009F090E08091EB00890F8093EB0027C0BC
:1012500000D000D000D088E890E0ADB7BEB71296BD
:101260009C938E9311978091E7009091E800A09154
:10127000E900B091EA00EDB7FEB783839483A583BC
:10128000B6830E947A0A84E18093EB002DB73EB7C3
:101290002A5F3F4F0FB6F8943EBF0FBE2DBF1F9180
:1012A0000F91FF90EF9008951F920F920FB60F923B
:1012B00011242F933F934F935F936F937F938F935B
:1012C0009F93AF93BF93EF93FF93E0919200F091C0
:1012D00093008CE290E00995882359F481E0809393
:1012E000910082E060E00E940F0881E060E00E94CF
:1012F0002708FF91EF91BF91AF919F918F917F91BF
:101300006F915F914F913F912F910F900FBE0F9072
:101310001F9018951F920F920FB60F9211240F90E5
:101320000FBE0F901F9018951F920F920FB60F923D
:1013300011240F900FBE0F901F901895209115014A
:101340002223C1F0E0911401F0E0E05EFE4F208125
:10135000FC012083809114018F3311F08F5F01C055
:1013600080E08093140180911501815080931501D4
:1013700081E0089580E008958F3311F08F5F089524
:1013800080E0089520911501213498F49091130183
:10139000E92FF0E0E05EFE4F80839F3311F09F5F06
:1013A00001C090E0909313012F5F2093150181E01D
:1013B000089580E008958F929F92AF92BF92CF924E
:1013C000DF92EF92FF921F936B017C0110E08AE0A5
:1013D000882E912CA12CB12CC701B601A501940136
:1013E0000E943A0BE12FF0E0EA5EFE4F6083A70116
:1013F0009601261B370B480B590BCA01B901A501F1
:1014000094010E943A0B69017A011F5F2115310591
:101410004105510509F71150E12FF0E0EA5EFE4F5A
:101420008081805D0E94C2091123A9F71F91FF905E
:10143000EF90DF90CF90BF90AF909F908F900895E6
:10144000EF92FF920F931F937B018C0197FF0BC0CC
:1014500010950095F094E094E11CF11C011D111D04
:101460008DE20E94C209C801B7010E94DB091F91E9
:101470000F91FF90EF9008950E94C2090895EF9296
:10148000FF92CF93DF93E82EE7017E01F92EE7016B
:1014900002C00E94C20989918823D9F7DF91CF91B8
:1014A000FF90EF9008951F9310E0262F2F702A30A1
:1014B00010F4205D01C0295AE12FF0E0EA5EFE4FF2
:1014C000208324E096958795779567952A95D1F79F
:1014D0001F5F611571058105910539F71150E12FE5
:1014E000F0E0EA5EFE4F80810E94C2091123B1F74D
:1014F0001F910895EF92FF920F931F93DF93CF9365
:1015000000D0CDB7DEB79E01235F3F4F9B858C8512
:10151000092F182F90E09AC0853209F08EC00F5F16
:101520001F4FF8018081843689F1853648F488356B
:1015300009F46BC0833691F0853509F073C04BC058
:101540008337B1F0843720F48C3609F06BC02BC0A0
:101550008537B1F1883709F065C04AC0B2E0EB2E9B
:10156000F12CE20EF31EF90180810E943C0A0CC0AE
:10157000A2E0EA2EF12CE20EF31EF90180819181A6
:101580000E94B1030E943F0A97015DC0F2E0EF2E76
:10159000F12CE20EF31EF90160817181882777FD3D
:1015A0008095982F0AC0E4E0EE2EF12CE20EF31E97
:1015B000F90160817181828193810E94200AE4CFC8
:1015C00072E0E72EF12CE20EF31EF90160817181C9
:1015D00080E090E00AC064E0E62EF12CE20EF31EFB
:1015E000F90160817181828193810E94DB09CCCFF6
:1015F00052E0E52EF12CE20EF31EF90160817181BB
:10160000882777FD8095982F0AC044E0E42EF12CBE
:10161000E20EF31EF90160817181828193810E9443
:10162000530AB2CF2E5F3F4FF801808129833A835E
:101630000E943C0A29813A8106C029833A830E948C
:101640003C0A3A8129810F5F1F4F91E0F8018081A8
:10165000882309F061CF913021F48EE999E00E944E
:1016600042080F900F90CF91DF911F910F91FF9043
:10167000EF900895A1E21A2EAA1BBB1BFD010DC01D
:10168000AA1FBB1FEE1FFF1FA217B307E407F50732
:1016900020F0A21BB30BE40BF50B661F771F881F0E
:1016A000991F1A9469F760957095809590959B01A4
:0C16B000AC01BD01CF010895F894FFCFFC
:1016BC008096980025552C25552C25552C25552CD8
:1016CC0025552C25552C25552C25552C25550A0DE5
:1016DC00002555256325630025750D0A00000000C3
:1016EC000001000073313233343536003333274177
:1016FC002020616263313233343500406438FF2A74
:10170C00000080018064003800FF00E803FF7F00C8
:10171C00000180FFFF102700000080FFFFFFFFFE8D
:10172C00FFFFFFF0D8FFFF0000000010270000FFB4
:0C173C00FFFF7F9BFFFF7F6400000001A7
:00000001FF
